{
  "_format": "hh-sol-artifact-1",
  "contractName": "ERC721GatedFollowModule",
  "sourceName": "contracts/core/modules/follow/ERC721GatedFollowModule.sol",
  "abi": [
    {
      "inputs": [
        {
          "internalType": "address",
          "name": "hub",
          "type": "address"
        }
      ],
      "stateMutability": "nonpayable",
      "type": "constructor"
    },
    {
      "inputs": [],
      "name": "FollowInvalid",
      "type": "error"
    },
    {
      "inputs": [],
      "name": "InitParamsInvalid",
      "type": "error"
    },
    {
      "inputs": [],
      "name": "NotHub",
      "type": "error"
    },
    {
      "inputs": [],
      "name": "HUB",
      "outputs": [
        {
          "internalType": "address",
          "name": "",
          "type": "address"
        }
      ],
      "stateMutability": "view",
      "type": "function"
    },
    {
      "inputs": [
        {
          "internalType": "uint256",
          "name": "profileId",
          "type": "uint256"
        },
        {
          "internalType": "address",
          "name": "nft",
          "type": "address"
        }
      ],
      "name": "addToNftGate",
      "outputs": [],
      "stateMutability": "nonpayable",
      "type": "function"
    },
    {
      "inputs": [
        {
          "internalType": "uint256",
          "name": "profileId",
          "type": "uint256"
        },
        {
          "internalType": "address",
          "name": "from",
          "type": "address"
        },
        {
          "internalType": "address",
          "name": "to",
          "type": "address"
        },
        {
          "internalType": "uint256",
          "name": "followNFTTokenId",
          "type": "uint256"
        }
      ],
      "name": "followModuleTransferHook",
      "outputs": [],
      "stateMutability": "nonpayable",
      "type": "function"
    },
    {
      "inputs": [
        {
          "internalType": "uint256",
          "name": "profileId",
          "type": "uint256"
        }
      ],
      "name": "getActiveNftGates",
      "outputs": [
        {
          "internalType": "address[]",
          "name": "",
          "type": "address[]"
        }
      ],
      "stateMutability": "view",
      "type": "function"
    },
    {
      "inputs": [
        {
          "internalType": "uint256",
          "name": "profileId",
          "type": "uint256"
        }
      ],
      "name": "getAllUsedNftGates",
      "outputs": [
        {
          "internalType": "address[]",
          "name": "",
          "type": "address[]"
        }
      ],
      "stateMutability": "view",
      "type": "function"
    },
    {
      "inputs": [
        {
          "internalType": "uint256",
          "name": "profileId",
          "type": "uint256"
        },
        {
          "internalType": "bytes",
          "name": "data",
          "type": "bytes"
        }
      ],
      "name": "initializeFollowModule",
      "outputs": [
        {
          "internalType": "bytes",
          "name": "",
          "type": "bytes"
        }
      ],
      "stateMutability": "nonpayable",
      "type": "function"
    },
    {
      "inputs": [
        {
          "internalType": "address",
          "name": "follower",
          "type": "address"
        },
        {
          "internalType": "uint256",
          "name": "profileId",
          "type": "uint256"
        },
        {
          "internalType": "bytes",
          "name": "data",
          "type": "bytes"
        }
      ],
      "name": "processFollow",
      "outputs": [],
      "stateMutability": "nonpayable",
      "type": "function"
    },
    {
      "inputs": [
        {
          "internalType": "uint256",
          "name": "profileId",
          "type": "uint256"
        },
        {
          "internalType": "address",
          "name": "nft",
          "type": "address"
        }
      ],
      "name": "removeFromNftGate",
      "outputs": [],
      "stateMutability": "nonpayable",
      "type": "function"
    },
    {
      "inputs": [
        {
          "internalType": "uint256",
          "name": "profileId",
          "type": "uint256"
        },
        {
          "internalType": "address",
          "name": "follower",
          "type": "address"
        },
        {
          "internalType": "uint256",
          "name": "followNFTTokenId",
          "type": "uint256"
        }
      ],
      "name": "validateFollow",
      "outputs": [],
      "stateMutability": "view",
      "type": "function"
    }
  ],
  "bytecode": "0x60a060405234801561001057600080fd5b50604051610f64380380610f6483398101604081905261002f916100a0565b806001600160a01b038116610057576040516348be0eb360e01b815260040160405180910390fd5b6001600160a01b03811660808190526040514281527ff1a1fa6b64aa95186f5a1285e76198d0da80d9c5a88062641d447f1d7c54e56c9060200160405180910390a250506100d0565b6000602082840312156100b257600080fd5b81516001600160a01b03811681146100c957600080fd5b9392505050565b608051610e726100f26000396000818161012201526105a80152610e726000f3fe608060405234801561001057600080fd5b50600436106100935760003560e01c80639713958a116100665780639713958a146100fd578063a4c52b861461011d578063b4616a2a1461015c578063ddd36e441461016f578063e687c4aa146101a857600080fd5b80630e096ae1146100985780633cb22cc4146100ad5780634249de89146100c15780637ccbefd8146100ea575b600080fd5b6100ab6100a6366004610ac7565b6101bb565b005b6100ab6100bb366004610b23565b50505050565b6100d46100cf366004610b6b565b610388565b6040516100e19190610b84565b60405180910390f35b6100ab6100f8366004610bd1565b6103f4565b61011061010b366004610c01565b610473565b6040516100e19190610c9a565b6101447f000000000000000000000000000000000000000000000000000000000000000081565b6040516001600160a01b0390911681526020016100e1565b6100ab61016a366004610cb4565b61058f565b6100ab61017d366004610bd1565b6000918252602082815260408084206001600160a01b0390931684529190529020805460ff19169055565b6100d46101b6366004610b6b565b610765565b6101ed6040518060400160405280601181526020017070726f63657373696e6720666f6c6c6f7760781b8152506108ef565b6101f683610935565b6101ff8461097a565b60008381526001602090815260408083208054825181850281018501909352808352919290919083018282801561025f57602002820191906000526020600020905b81546001600160a01b03168152600190910190602001808311610241575b5050505050905060005b815181101561038057600080868152602001908152602001600020600083838151811061029857610298610cec565b6020908102919091018101516001600160a01b031682528101919091526040016000205460ff1615156001141561036e578181815181106102db576102db610cec565b60209081029190910101516040516370a0823160e01b81526001600160a01b038881166004830152909116906370a0823190602401602060405180830381865afa15801561032d573d6000803e3d6000fd5b505050506040513d601f19601f820116820180604052508101906103519190610d02565b61036e57604051636992d36b60e11b815260040160405180910390fd5b8061037881610d1b565b915050610269565b505050505050565b6000818152600160209081526040918290208054835181840281018401909452808452606093928301828280156103e857602002820191906000526020600020905b81546001600160a01b031681526001909101906020018083116103ca575b50505050509050919050565b6104236040518060400160405280600e81526020016d616464696e6720746f206761746560901b8152506108ef565b61042c82610935565b6104358161097a565b6000918252600160208181526040842080549283018155845290922090910180546001600160a01b0319166001600160a01b03909216919091179055565b606061049c604051806040016040528060068152602001651a5b9a5d1d1d60d21b8152506108ef565b81156105505760006104b083850185610d5a565b600086815260016020908152604090912082519293506104d49290918401906109df565b5060005b815181101561054d576001600080888152602001908152602001600020600084848151811061050957610509610cec565b6020908102919091018101516001600160a01b03168252810191909152604001600020805460ff19169115159190911790558061054581610d1b565b9150506104d8565b50505b82828080601f01602080910402602001604051908101604052809392919081815260200183838082843760009201919091525092979650505050505050565b60405163a9ec656360e01b8152600481018490526000907f00000000000000000000000000000000000000000000000000000000000000006001600160a01b03169063a9ec656390602401602060405180830381865afa1580156105f7573d6000803e3d6000fd5b505050506040513d601f19601f8201168201806040525081019061061b9190610e1f565b90506001600160a01b03811661064457604051636992d36b60e11b815260040160405180910390fd5b816106d0576040516370a0823160e01b81526001600160a01b0384811660048301528216906370a0823190602401602060405180830381865afa15801561068f573d6000803e3d6000fd5b505050506040513d601f19601f820116820180604052508101906106b39190610d02565b6100bb57604051636992d36b60e11b815260040160405180910390fd5b6040516331a9108f60e11b8152600481018390526001600160a01b038085169190831690636352211e90602401602060405180830381865afa15801561071a573d6000803e3d6000fd5b505050506040513d601f19601f8201168201806040525081019061073e9190610e1f565b6001600160a01b0316146100bb57604051636992d36b60e11b815260040160405180910390fd5b6000818152600160205260408120546060919067ffffffffffffffff81111561079057610790610d44565b6040519080825280602002602001820160405280156107b9578160200160208202803683370190505b5060008481526001602090815260408083208054825181850281018501909352808352949550929390929183018282801561081d57602002820191906000526020600020905b81546001600160a01b031681526001909101906020018083116107ff575b5050505050905060005b81518110156108e657600080868152602001908152602001600020600083838151811061085657610856610cec565b6020908102919091018101516001600160a01b031682528101919091526040016000205460ff161515600114156108d45781818151811061089957610899610cec565b60200260200101518382815181106108b3576108b3610cec565b60200260200101906001600160a01b031690816001600160a01b0316815250505b806108de81610d1b565b915050610827565b50909392505050565b610932816040516024016109039190610c9a565b60408051601f198184030181529190526020810180516001600160e01b031663104c13eb60e21b1790526109be565b50565b6109328160405160240161094b91815260200190565b60408051601f198184030181529190526020810180516001600160e01b031663f5b1bba960e01b1790526109be565b6040516001600160a01b03821660248201526109329060440160408051601f198184030181529190526020810180516001600160e01b031663161765e160e11b1790525b80516a636f6e736f6c652e6c6f67602083016000808483855afa5050505050565b828054828255906000526020600020908101928215610a34579160200282015b82811115610a3457825182546001600160a01b0319166001600160a01b039091161782556020909201916001909101906109ff565b50610a40929150610a44565b5090565b5b80821115610a405760008155600101610a45565b6001600160a01b038116811461093257600080fd5b8035610a7981610a59565b919050565b60008083601f840112610a9057600080fd5b50813567ffffffffffffffff811115610aa857600080fd5b602083019150836020828501011115610ac057600080fd5b9250929050565b60008060008060608587031215610add57600080fd5b8435610ae881610a59565b935060208501359250604085013567ffffffffffffffff811115610b0b57600080fd5b610b1787828801610a7e565b95989497509550505050565b60008060008060808587031215610b3957600080fd5b843593506020850135610b4b81610a59565b92506040850135610b5b81610a59565b9396929550929360600135925050565b600060208284031215610b7d57600080fd5b5035919050565b6020808252825182820181905260009190848201906040850190845b81811015610bc55783516001600160a01b031683529284019291840191600101610ba0565b50909695505050505050565b60008060408385031215610be457600080fd5b823591506020830135610bf681610a59565b809150509250929050565b600080600060408486031215610c1657600080fd5b83359250602084013567ffffffffffffffff811115610c3457600080fd5b610c4086828701610a7e565b9497909650939450505050565b6000815180845260005b81811015610c7357602081850181015186830182015201610c57565b81811115610c85576000602083870101525b50601f01601f19169290920160200192915050565b602081526000610cad6020830184610c4d565b9392505050565b600080600060608486031215610cc957600080fd5b833592506020840135610cdb81610a59565b929592945050506040919091013590565b634e487b7160e01b600052603260045260246000fd5b600060208284031215610d1457600080fd5b5051919050565b6000600019821415610d3d57634e487b7160e01b600052601160045260246000fd5b5060010190565b634e487b7160e01b600052604160045260246000fd5b60006020808385031215610d6d57600080fd5b823567ffffffffffffffff80821115610d8557600080fd5b818501915085601f830112610d9957600080fd5b813581811115610dab57610dab610d44565b8060051b604051601f19603f83011681018181108582111715610dd057610dd0610d44565b604052918252848201925083810185019188831115610dee57600080fd5b938501935b82851015610e1357610e0485610a6e565b84529385019392850192610df3565b98975050505050505050565b600060208284031215610e3157600080fd5b8151610cad81610a5956fea2646970667358221220e396e1992c85d87d686a804a3460c932efc589f95ef77f073dd55968c95e1b7664736f6c634300080a0033",
  "linkReferences": {},
  "deployedLinkReferences": {}
}