{
  "_format": "hh-sol-artifact-1",
  "contractName": "FollowNFT",
  "sourceName": "contracts/core/FollowNFT.sol",
  "abi": [
    {
      "inputs": [
        {
          "internalType": "address",
          "name": "hub",
          "type": "address"
        }
      ],
      "stateMutability": "nonpayable",
      "type": "constructor"
    },
    {
      "inputs": [],
      "name": "BlockNumberInvalid",
      "type": "error"
    },
    {
      "inputs": [],
      "name": "Initialized",
      "type": "error"
    },
    {
      "inputs": [],
      "name": "NotOwnerOrApproved",
      "type": "error"
    },
    {
      "inputs": [],
      "name": "SignatureExpired",
      "type": "error"
    },
    {
      "inputs": [],
      "name": "SignatureInvalid",
      "type": "error"
    },
    {
      "inputs": [],
      "name": "TokenDoesNotExist",
      "type": "error"
    },
    {
      "inputs": [],
      "name": "ZeroSpender",
      "type": "error"
    },
    {
      "anonymous": false,
      "inputs": [
        {
          "indexed": true,
          "internalType": "address",
          "name": "owner",
          "type": "address"
        },
        {
          "indexed": true,
          "internalType": "address",
          "name": "approved",
          "type": "address"
        },
        {
          "indexed": true,
          "internalType": "uint256",
          "name": "tokenId",
          "type": "uint256"
        }
      ],
      "name": "Approval",
      "type": "event"
    },
    {
      "anonymous": false,
      "inputs": [
        {
          "indexed": true,
          "internalType": "address",
          "name": "owner",
          "type": "address"
        },
        {
          "indexed": true,
          "internalType": "address",
          "name": "operator",
          "type": "address"
        },
        {
          "indexed": false,
          "internalType": "bool",
          "name": "approved",
          "type": "bool"
        }
      ],
      "name": "ApprovalForAll",
      "type": "event"
    },
    {
      "anonymous": false,
      "inputs": [
        {
          "indexed": true,
          "internalType": "address",
          "name": "from",
          "type": "address"
        },
        {
          "indexed": true,
          "internalType": "address",
          "name": "to",
          "type": "address"
        },
        {
          "indexed": true,
          "internalType": "uint256",
          "name": "tokenId",
          "type": "uint256"
        }
      ],
      "name": "Transfer",
      "type": "event"
    },
    {
      "inputs": [],
      "name": "HUB",
      "outputs": [
        {
          "internalType": "address",
          "name": "",
          "type": "address"
        }
      ],
      "stateMutability": "view",
      "type": "function"
    },
    {
      "inputs": [
        {
          "internalType": "address",
          "name": "to",
          "type": "address"
        },
        {
          "internalType": "uint256",
          "name": "tokenId",
          "type": "uint256"
        }
      ],
      "name": "approve",
      "outputs": [],
      "stateMutability": "nonpayable",
      "type": "function"
    },
    {
      "inputs": [
        {
          "internalType": "address",
          "name": "owner",
          "type": "address"
        }
      ],
      "name": "balanceOf",
      "outputs": [
        {
          "internalType": "uint256",
          "name": "",
          "type": "uint256"
        }
      ],
      "stateMutability": "view",
      "type": "function"
    },
    {
      "inputs": [
        {
          "internalType": "uint256",
          "name": "tokenId",
          "type": "uint256"
        }
      ],
      "name": "burn",
      "outputs": [],
      "stateMutability": "nonpayable",
      "type": "function"
    },
    {
      "inputs": [
        {
          "internalType": "uint256",
          "name": "tokenId",
          "type": "uint256"
        },
        {
          "components": [
            {
              "internalType": "uint8",
              "name": "v",
              "type": "uint8"
            },
            {
              "internalType": "bytes32",
              "name": "r",
              "type": "bytes32"
            },
            {
              "internalType": "bytes32",
              "name": "s",
              "type": "bytes32"
            },
            {
              "internalType": "uint256",
              "name": "deadline",
              "type": "uint256"
            }
          ],
          "internalType": "struct DataTypes.EIP712Signature",
          "name": "sig",
          "type": "tuple"
        }
      ],
      "name": "burnWithSig",
      "outputs": [],
      "stateMutability": "nonpayable",
      "type": "function"
    },
    {
      "inputs": [
        {
          "internalType": "address",
          "name": "delegatee",
          "type": "address"
        }
      ],
      "name": "delegate",
      "outputs": [],
      "stateMutability": "nonpayable",
      "type": "function"
    },
    {
      "inputs": [
        {
          "internalType": "address",
          "name": "delegator",
          "type": "address"
        },
        {
          "internalType": "address",
          "name": "delegatee",
          "type": "address"
        },
        {
          "components": [
            {
              "internalType": "uint8",
              "name": "v",
              "type": "uint8"
            },
            {
              "internalType": "bytes32",
              "name": "r",
              "type": "bytes32"
            },
            {
              "internalType": "bytes32",
              "name": "s",
              "type": "bytes32"
            },
            {
              "internalType": "uint256",
              "name": "deadline",
              "type": "uint256"
            }
          ],
          "internalType": "struct DataTypes.EIP712Signature",
          "name": "sig",
          "type": "tuple"
        }
      ],
      "name": "delegateBySig",
      "outputs": [],
      "stateMutability": "nonpayable",
      "type": "function"
    },
    {
      "inputs": [
        {
          "internalType": "uint256",
          "name": "tokenId",
          "type": "uint256"
        }
      ],
      "name": "exists",
      "outputs": [
        {
          "internalType": "bool",
          "name": "",
          "type": "bool"
        }
      ],
      "stateMutability": "view",
      "type": "function"
    },
    {
      "inputs": [
        {
          "internalType": "uint256",
          "name": "tokenId",
          "type": "uint256"
        }
      ],
      "name": "getApproved",
      "outputs": [
        {
          "internalType": "address",
          "name": "",
          "type": "address"
        }
      ],
      "stateMutability": "view",
      "type": "function"
    },
    {
      "inputs": [
        {
          "internalType": "uint256",
          "name": "blockNumber",
          "type": "uint256"
        }
      ],
      "name": "getDelegatedSupplyByBlockNumber",
      "outputs": [
        {
          "internalType": "uint256",
          "name": "",
          "type": "uint256"
        }
      ],
      "stateMutability": "view",
      "type": "function"
    },
    {
      "inputs": [],
      "name": "getDomainSeparator",
      "outputs": [
        {
          "internalType": "bytes32",
          "name": "",
          "type": "bytes32"
        }
      ],
      "stateMutability": "view",
      "type": "function"
    },
    {
      "inputs": [
        {
          "internalType": "address",
          "name": "user",
          "type": "address"
        },
        {
          "internalType": "uint256",
          "name": "blockNumber",
          "type": "uint256"
        }
      ],
      "name": "getPowerByBlockNumber",
      "outputs": [
        {
          "internalType": "uint256",
          "name": "",
          "type": "uint256"
        }
      ],
      "stateMutability": "view",
      "type": "function"
    },
    {
      "inputs": [
        {
          "internalType": "uint256",
          "name": "profileId",
          "type": "uint256"
        },
        {
          "internalType": "string",
          "name": "name",
          "type": "string"
        },
        {
          "internalType": "string",
          "name": "symbol",
          "type": "string"
        }
      ],
      "name": "initialize",
      "outputs": [],
      "stateMutability": "nonpayable",
      "type": "function"
    },
    {
      "inputs": [
        {
          "internalType": "address",
          "name": "owner",
          "type": "address"
        },
        {
          "internalType": "address",
          "name": "operator",
          "type": "address"
        }
      ],
      "name": "isApprovedForAll",
      "outputs": [
        {
          "internalType": "bool",
          "name": "",
          "type": "bool"
        }
      ],
      "stateMutability": "view",
      "type": "function"
    },
    {
      "inputs": [
        {
          "internalType": "address",
          "name": "to",
          "type": "address"
        }
      ],
      "name": "mint",
      "outputs": [],
      "stateMutability": "nonpayable",
      "type": "function"
    },
    {
      "inputs": [
        {
          "internalType": "uint256",
          "name": "tokenId",
          "type": "uint256"
        }
      ],
      "name": "mintTimestampOf",
      "outputs": [
        {
          "internalType": "uint256",
          "name": "",
          "type": "uint256"
        }
      ],
      "stateMutability": "view",
      "type": "function"
    },
    {
      "inputs": [],
      "name": "name",
      "outputs": [
        {
          "internalType": "string",
          "name": "",
          "type": "string"
        }
      ],
      "stateMutability": "view",
      "type": "function"
    },
    {
      "inputs": [
        {
          "internalType": "uint256",
          "name": "tokenId",
          "type": "uint256"
        }
      ],
      "name": "ownerOf",
      "outputs": [
        {
          "internalType": "address",
          "name": "",
          "type": "address"
        }
      ],
      "stateMutability": "view",
      "type": "function"
    },
    {
      "inputs": [
        {
          "internalType": "address",
          "name": "spender",
          "type": "address"
        },
        {
          "internalType": "uint256",
          "name": "tokenId",
          "type": "uint256"
        },
        {
          "components": [
            {
              "internalType": "uint8",
              "name": "v",
              "type": "uint8"
            },
            {
              "internalType": "bytes32",
              "name": "r",
              "type": "bytes32"
            },
            {
              "internalType": "bytes32",
              "name": "s",
              "type": "bytes32"
            },
            {
              "internalType": "uint256",
              "name": "deadline",
              "type": "uint256"
            }
          ],
          "internalType": "struct DataTypes.EIP712Signature",
          "name": "sig",
          "type": "tuple"
        }
      ],
      "name": "permit",
      "outputs": [],
      "stateMutability": "nonpayable",
      "type": "function"
    },
    {
      "inputs": [
        {
          "internalType": "address",
          "name": "owner",
          "type": "address"
        },
        {
          "internalType": "address",
          "name": "operator",
          "type": "address"
        },
        {
          "internalType": "bool",
          "name": "approved",
          "type": "bool"
        },
        {
          "components": [
            {
              "internalType": "uint8",
              "name": "v",
              "type": "uint8"
            },
            {
              "internalType": "bytes32",
              "name": "r",
              "type": "bytes32"
            },
            {
              "internalType": "bytes32",
              "name": "s",
              "type": "bytes32"
            },
            {
              "internalType": "uint256",
              "name": "deadline",
              "type": "uint256"
            }
          ],
          "internalType": "struct DataTypes.EIP712Signature",
          "name": "sig",
          "type": "tuple"
        }
      ],
      "name": "permitForAll",
      "outputs": [],
      "stateMutability": "nonpayable",
      "type": "function"
    },
    {
      "inputs": [
        {
          "internalType": "address",
          "name": "from",
          "type": "address"
        },
        {
          "internalType": "address",
          "name": "to",
          "type": "address"
        },
        {
          "internalType": "uint256",
          "name": "tokenId",
          "type": "uint256"
        }
      ],
      "name": "safeTransferFrom",
      "outputs": [],
      "stateMutability": "nonpayable",
      "type": "function"
    },
    {
      "inputs": [
        {
          "internalType": "address",
          "name": "from",
          "type": "address"
        },
        {
          "internalType": "address",
          "name": "to",
          "type": "address"
        },
        {
          "internalType": "uint256",
          "name": "tokenId",
          "type": "uint256"
        },
        {
          "internalType": "bytes",
          "name": "_data",
          "type": "bytes"
        }
      ],
      "name": "safeTransferFrom",
      "outputs": [],
      "stateMutability": "nonpayable",
      "type": "function"
    },
    {
      "inputs": [
        {
          "internalType": "address",
          "name": "operator",
          "type": "address"
        },
        {
          "internalType": "bool",
          "name": "approved",
          "type": "bool"
        }
      ],
      "name": "setApprovalForAll",
      "outputs": [],
      "stateMutability": "nonpayable",
      "type": "function"
    },
    {
      "inputs": [
        {
          "internalType": "address",
          "name": "",
          "type": "address"
        }
      ],
      "name": "sigNonces",
      "outputs": [
        {
          "internalType": "uint256",
          "name": "",
          "type": "uint256"
        }
      ],
      "stateMutability": "view",
      "type": "function"
    },
    {
      "inputs": [
        {
          "internalType": "bytes4",
          "name": "interfaceId",
          "type": "bytes4"
        }
      ],
      "name": "supportsInterface",
      "outputs": [
        {
          "internalType": "bool",
          "name": "",
          "type": "bool"
        }
      ],
      "stateMutability": "view",
      "type": "function"
    },
    {
      "inputs": [],
      "name": "symbol",
      "outputs": [
        {
          "internalType": "string",
          "name": "",
          "type": "string"
        }
      ],
      "stateMutability": "view",
      "type": "function"
    },
    {
      "inputs": [
        {
          "internalType": "uint256",
          "name": "index",
          "type": "uint256"
        }
      ],
      "name": "tokenByIndex",
      "outputs": [
        {
          "internalType": "uint256",
          "name": "",
          "type": "uint256"
        }
      ],
      "stateMutability": "view",
      "type": "function"
    },
    {
      "inputs": [
        {
          "internalType": "uint256",
          "name": "tokenId",
          "type": "uint256"
        }
      ],
      "name": "tokenDataOf",
      "outputs": [
        {
          "components": [
            {
              "internalType": "address",
              "name": "owner",
              "type": "address"
            },
            {
              "internalType": "uint96",
              "name": "mintTimestamp",
              "type": "uint96"
            }
          ],
          "internalType": "struct IERC721Time.TokenData",
          "name": "",
          "type": "tuple"
        }
      ],
      "stateMutability": "view",
      "type": "function"
    },
    {
      "inputs": [
        {
          "internalType": "address",
          "name": "owner",
          "type": "address"
        },
        {
          "internalType": "uint256",
          "name": "index",
          "type": "uint256"
        }
      ],
      "name": "tokenOfOwnerByIndex",
      "outputs": [
        {
          "internalType": "uint256",
          "name": "",
          "type": "uint256"
        }
      ],
      "stateMutability": "view",
      "type": "function"
    },
    {
      "inputs": [
        {
          "internalType": "uint256",
          "name": "tokenId",
          "type": "uint256"
        }
      ],
      "name": "tokenURI",
      "outputs": [
        {
          "internalType": "string",
          "name": "",
          "type": "string"
        }
      ],
      "stateMutability": "view",
      "type": "function"
    },
    {
      "inputs": [],
      "name": "totalSupply",
      "outputs": [
        {
          "internalType": "uint256",
          "name": "",
          "type": "uint256"
        }
      ],
      "stateMutability": "view",
      "type": "function"
    },
    {
      "inputs": [
        {
          "internalType": "address",
          "name": "from",
          "type": "address"
        },
        {
          "internalType": "address",
          "name": "to",
          "type": "address"
        },
        {
          "internalType": "uint256",
          "name": "tokenId",
          "type": "uint256"
        }
      ],
      "name": "transferFrom",
      "outputs": [],
      "stateMutability": "nonpayable",
      "type": "function"
    }
  ],
  "bytecode": "0x60a06040523480156200001157600080fd5b5060405162002ef638038062002ef6833981016040819052620000349162000053565b6001600160a01b03166080526012805460ff1916600117905562000085565b6000602082840312156200006657600080fd5b81516001600160a01b03811681146200007e57600080fd5b9392505050565b608051612e40620000b6600039600081816103c1015281816111ed01528181611cc10152611d8d0152612e406000f3fe608060405234801561001057600080fd5b50600436106101f05760003560e01c806370a082311161010f578063c0da9bcd116100a2578063e985e9c511610071578063e985e9c51461046f578063ed24911d146104ab578063eedfca5f146104b3578063f990ccd7146104c657600080fd5b8063c0da9bcd146103f6578063c87b56dd14610436578063dd69cdb114610449578063df8d80711461045c57600080fd5b806395d89b41116100de57806395d89b41146103a1578063a22cb465146103a9578063a4c52b86146103bc578063b88d4fde146103e357600080fd5b806370a08231146103555780637ef67f991461036857806389028a131461037b5780638fca0d411461038e57600080fd5b806342842e0e1161018757806350ddf35c1161015657806350ddf35c146103095780635c19a95c1461031c5780636352211e1461032f5780636a6278421461034257600080fd5b806342842e0e146102bd57806342966c68146102d05780634f558e79146102e35780634f6ccce7146102f657600080fd5b806318160ddd116101c357806318160ddd1461027257806323b872dd146102845780632c994dc8146102975780632f745c59146102aa57600080fd5b806301ffc9a7146101f557806306fdde031461021d578063081812fc14610232578063095ea7b31461025d575b600080fd5b610208610203366004612600565b6104e6565b60405190151581526020015b60405180910390f35b610225610511565b604051610214919061267c565b61024561024036600461268f565b6105a3565b6040516001600160a01b039091168152602001610214565b61027061026b3660046126bd565b610630565b005b6008545b604051908152602001610214565b6102706102923660046126e9565b610746565b6102766102a53660046126bd565b610777565b6102766102b83660046126bd565b610987565b6102706102cb3660046126e9565b610a1d565b6102706102de36600461268f565b610a38565b6102086102f136600461268f565b610a6b565b61027661030436600461268f565b610a76565b61027661031736600461268f565b610b09565b61027061032a36600461272a565b610b9f565b61024561033d36600461268f565b610ba9565b61027061035036600461272a565b610c20565b61027661036336600461272a565b610c46565b61027061037636600461275f565b610ccd565b6102706103893660046127b3565b610dda565b61027661039c36600461268f565b610eb9565b610225611047565b6102706103b736600461280c565b611056565b6102457f000000000000000000000000000000000000000000000000000000000000000081565b6102706103f13660046128b0565b6110ba565b61040961040436600461268f565b6110ec565b6040805182516001600160a01b031681526020928301516001600160601b03169281019290925201610214565b61022561044436600461268f565b6111ab565b61027061045736600461295f565b611264565b61027061046a366004612983565b6112fa565b61020861047d3660046129c2565b6001600160a01b03918216600090815260056020908152604080832093909416825291909152205460ff1690565b6102766113a8565b6102706104c1366004612a44565b6113b7565b6102766104d436600461272a565b600a6020526000908152604090205481565b60006001600160e01b0319821663780e9d6360e01b148061050b575061050b8261143a565b92915050565b60606000805461052090612abe565b80601f016020809104026020016040519081016040528092919081815260200182805461054c90612abe565b80156105995780601f1061056e57610100808354040283529160200191610599565b820191906000526020600020905b81548152906001019060200180831161057c57829003601f168201915b5050505050905090565b60006105ae8261148a565b6106145760405162461bcd60e51b815260206004820152602c60248201527f4552433732313a20617070726f76656420717565727920666f72206e6f6e657860448201526b34b9ba32b73a103a37b5b2b760a11b60648201526084015b60405180910390fd5b506000908152600460205260409020546001600160a01b031690565b600061063b82610ba9565b9050806001600160a01b0316836001600160a01b031614156106a95760405162461bcd60e51b815260206004820152602160248201527f4552433732313a20617070726f76616c20746f2063757272656e74206f776e656044820152603960f91b606482015260840161060b565b336001600160a01b03821614806106c557506106c5813361047d565b6107375760405162461bcd60e51b815260206004820152603860248201527f4552433732313a20617070726f76652063616c6c6572206973206e6f74206f7760448201527f6e6572206e6f7220617070726f76656420666f7220616c6c0000000000000000606482015260840161060b565b61074183836114a7565b505050565b6107503382611515565b61076c5760405162461bcd60e51b815260040161060b90612af3565b6107418383836115ff565b6000438211156107995760405162ac8e9f60e61b815260040160405180910390fd5b6001600160a01b0383166000908152600d6020526040902054806107c157600091505061050b565b6000806107cf600184612b5a565b6001600160a01b0387166000908152600b602090815260408083208484529091529020549091506001600160801b03168510610842576001600160a01b0386166000908152600b602090815260408083209383529290522054600160801b90046001600160801b0316925061050b915050565b6001600160a01b0386166000908152600b602090815260408083208584529091529020546001600160801b0316851015610882576000935050505061050b565b8181111561094a57600060026108988484612b5a565b6108a29190612b71565b6108ac9083612b5a565b6001600160a01b0388166000908152600b602090815260408083208484528252918290208251808401909352546001600160801b03808216808552600160801b90920416918301919091529192509087141561091b57602001516001600160801b0316945061050b9350505050565b80516001600160801b031687111561093557819350610943565b610940600183612b5a565b92505b5050610882565b506001600160a01b0385166000908152600b602090815260408083209383529290522054600160801b90046001600160801b031691505092915050565b600061099283610c46565b82106109f45760405162461bcd60e51b815260206004820152602b60248201527f455243373231456e756d657261626c653a206f776e657220696e646578206f7560448201526a74206f6620626f756e647360a81b606482015260840161060b565b506001600160a01b03919091166000908152600660209081526040808320938352929052205490565b610741838383604051806020016040528060008152506110ba565b610a423382611515565b610a5f57604051636d8a29e760e11b815260040160405180910390fd5b610a68816117aa565b50565b600061050b8261148a565b6000610a8160085490565b8210610ae45760405162461bcd60e51b815260206004820152602c60248201527f455243373231456e756d657261626c653a20676c6f62616c20696e646578206f60448201526b7574206f6620626f756e647360a01b606482015260840161060b565b60088281548110610af757610af7612b93565b90600052602060002001549050919050565b600081815260026020526040812054600160a01b90046001600160601b031680610b905760405162461bcd60e51b815260206004820152603260248201527f4552433732313a206d696e742074696d657374616d7020717565727920666f72604482015271103737b732bc34b9ba32b73a103a37b5b2b760711b606482015260840161060b565b6001600160601b031692915050565b610a683382611846565b6000818152600260205260408120546001600160a01b03168061050b5760405162461bcd60e51b815260206004820152602960248201527f4552433732313a206f776e657220717565727920666f72206e6f6e657869737460448201526832b73a103a37b5b2b760b91b606482015260840161060b565b6000601160008154610c3190612ba9565b91829055509050610c42828261188d565b5050565b60006001600160a01b038216610cb15760405162461bcd60e51b815260206004820152602a60248201527f4552433732313a2062616c616e636520717565727920666f7220746865207a65604482015269726f206164647265737360b01b606482015260840161060b565b506001600160a01b031660009081526003602052604090205490565b6001600160a01b038316610cf4576040516307eb16dd60e21b815260040160405180910390fd5b6000610cff83610ba9565b6001600160a01b0381166000908152600a602052604081208054929350610dca92610db5927f49ecf333e5b8c95c40fdafc95c1ad136e8914a8fb55e9dc8bb01eaa83a2df9ad9289928992909190610d5683612ba9565b919050558760600135604051602001610d9a9594939291909485526001600160a01b0393909316602085015260408401919091526060830152608082015260a00190565b604051602081830303815290604052805190602001206119cf565b82610dc536869003860186612bc4565b611a19565b610dd484846114a7565b50505050565b6001600160a01b038316610e01576040516307eb16dd60e21b815260040160405180910390fd5b6001600160a01b0384166000908152600a602052604081208054610eae92610e9e927f47ab88482c90e4bb94b82a947ae78fa91fb25de1469ab491f4c15b9a0a2677ee9289928992899291610e5583612ba9565b909155506040805160208101969096526001600160a01b039485169086015291909216606080850191909152911515608084015260a083015284013560c082015260e001610d9a565b85610dc536859003850185612bc4565b610dd4848484611afd565b600043821115610edb5760405162ac8e9f60e61b815260040160405180910390fd5b600f5480610eec5750600092915050565b600080610efa600184612b5a565b6000818152600e60205260409020549091506001600160801b03168510610f42576000908152600e6020526040902054600160801b90046001600160801b0316949350505050565b6000828152600e60205260409020546001600160801b0316851015610f6c57506000949350505050565b818111156110205760006002610f828484612b5a565b610f8c9190612b71565b610f969083612b5a565b6000818152600e60209081526040918290208251808401909352546001600160801b03808216808552600160801b909204169183019190915291925090871415610ff157602001516001600160801b03169695505050505050565b80516001600160801b031687111561100b57819350611019565b611016600183612b5a565b92505b5050610f6c565b506000908152600e6020526040902054600160801b90046001600160801b03169392505050565b60606001805461052090612abe565b6001600160a01b0382163314156110af5760405162461bcd60e51b815260206004820152601960248201527f4552433732313a20617070726f766520746f2063616c6c657200000000000000604482015260640161060b565b610c42338383611afd565b6110c43383611515565b6110e05760405162461bcd60e51b815260040161060b90612af3565b610dd484848484611b6a565b60408051808201909152600080825260208201526111098261148a565b61116c5760405162461bcd60e51b815260206004820152602e60248201527f4552433732313a20746f6b656e206461746120717565727920666f72206e6f6e60448201526d32bc34b9ba32b73a103a37b5b2b760911b606482015260840161060b565b506000908152600260209081526040918290208251808401909352546001600160a01b0381168352600160a01b90046001600160601b03169082015290565b60606111b68261148a565b6111d35760405163677510db60e11b815260040160405180910390fd5b60105460405163374c947360e01b815260048101919091527f00000000000000000000000000000000000000000000000000000000000000006001600160a01b03169063374c947390602401600060405180830381865afa15801561123c573d6000803e3d6000fd5b505050506040513d6000823e601f3d908101601f1916820160405261050b9190810190612c39565b600061126f83610ba9565b6001600160a01b0381166000908152600a6020526040812080549293506112f192610db5927f108ccda6d7331b00561a3eea66a2ae331622356585681c62731e4a01aae2261a928892916112c283612ba9565b90915550604080516020810194909452830191909152606082810191909152850135608082015260a001610d9a565b610741836117aa565b6001600160a01b0383166000908152600a60205260408120805461139e9261138e927fb8f190a57772800093f4e2b186099eb4f1df0ed7f5e2791e89a4a07678e0aeff92889288929061134c83612ba9565b909155506040805160208101959095526001600160a01b03938416908501529116606083810191909152608083019190915284013560a082015260c001610d9a565b84610dc536859003850185612bc4565b6107418383611846565b60006113b2611b9d565b905090565b60125460ff16156113db576040516302ed543d60e51b815260040160405180910390fd5b6012805460ff1916600117905560108590556113f984848484611c32565b847faec15127df11a6b562c87d31bcb8f4cd2f0cf57fb9b663d6334abf41fea94d954260405161142b91815260200190565b60405180910390a25050505050565b60006001600160e01b031982166380ac58cd60e01b148061146b57506001600160e01b03198216635b5e139f60e01b145b8061050b57506301ffc9a760e01b6001600160e01b031983161461050b565b6000908152600260205260409020546001600160a01b0316151590565b600081815260046020526040902080546001600160a01b0319166001600160a01b03841690811790915581906114dc82610ba9565b6001600160a01b03167f8c5be1e5ebec7d5bd14f71427d1e84f3dd0314c0f7b2291e5b200ac8c7c3b92560405160405180910390a45050565b60006115208261148a565b6115815760405162461bcd60e51b815260206004820152602c60248201527f4552433732313a206f70657261746f7220717565727920666f72206e6f6e657860448201526b34b9ba32b73a103a37b5b2b760a11b606482015260840161060b565b600061158c83610ba9565b9050806001600160a01b0316846001600160a01b031614806115c75750836001600160a01b03166115bc846105a3565b6001600160a01b0316145b806115f757506001600160a01b0380821660009081526005602090815260408083209388168352929052205460ff165b949350505050565b826001600160a01b031661161282610ba9565b6001600160a01b03161461167a5760405162461bcd60e51b815260206004820152602960248201527f4552433732313a207472616e73666572206f6620746f6b656e2074686174206960448201526839903737ba1037bbb760b91b606482015260840161060b565b6001600160a01b0382166116dc5760405162461bcd60e51b8152602060048201526024808201527f4552433732313a207472616e7366657220746f20746865207a65726f206164646044820152637265737360e01b606482015260840161060b565b6116e7838383611c83565b6116f26000826114a7565b6001600160a01b038316600090815260036020526040812080546001929061171b908490612b5a565b90915550506001600160a01b0382166000908152600360205260408120805460019290611749908490612cb0565b909155505060008181526002602052604080822080546001600160a01b0319166001600160a01b0386811691821790925591518493918716917fddf252ad1be2c89b69c2b068fc378daa952ba7f163c4a11628f55a4df523b3ef91a4505050565b60006117b582610ba9565b90506117c381600084611c83565b6117ce6000836114a7565b6001600160a01b03811660009081526003602052604081208054600192906117f7908490612b5a565b9091555050600082815260026020526040808220829055518391906001600160a01b038416907fddf252ad1be2c89b69c2b068fc378daa952ba7f163c4a11628f55a4df523b3ef908390a45050565b600061185183610c46565b6001600160a01b038085166000908152600c6020526040902080548583166001600160a01b031982161790915591925016610dd4818484611e76565b6001600160a01b0382166118e35760405162461bcd60e51b815260206004820181905260248201527f4552433732313a206d696e7420746f20746865207a65726f2061646472657373604482015260640161060b565b6118ec8161148a565b156119395760405162461bcd60e51b815260206004820152601c60248201527f4552433732313a20746f6b656e20616c7265616479206d696e74656400000000604482015260640161060b565b61194560008383611c83565b6001600160a01b038216600090815260036020526040812080546001929061196e908490612cb0565b90915550506000818152600260205260408082206001600160a01b038516600160a01b426001600160601b031602811790915590518392907fddf252ad1be2c89b69c2b068fc378daa952ba7f163c4a11628f55a4df523b3ef908290a45050565b6000806119da611b9d565b60405161190160f01b602082015260228101919091526042810184905260620160408051601f1981840301815291905280516020909101209392505050565b4281606001511015611a3e57604051630819bdcd60e01b815260040160405180910390fd5b600060018483600001518460200151856040015160405160008152602001604052604051611a88949392919093845260ff9290921660208401526040830152606082015260800190565b6020604051602081039080840390855afa158015611aaa573d6000803e3d6000fd5b5050604051601f1901519150506001600160a01b0381161580611adf5750826001600160a01b0316816001600160a01b031614155b15610dd4576040516337e8456b60e01b815260040160405180910390fd5b6001600160a01b03838116600081815260056020908152604080832094871680845294825291829020805460ff191686151590811790915591519182527f17307eab39ab6107e8899845ad3d59bd9653f200f220920489ca2b5937696c31910160405180910390a3505050565b611b758484846115ff565b611b8184848484612061565b610dd45760405162461bcd60e51b815260040161060b90612cc8565b60007f8b73c3c69bb8fe3d512ecc4cf759cc79239f7b179b0ffacaa9a75d522b39400f611bc8610511565b80516020918201206040805192830193909352918101919091527fc89efdaa54c0f20c7adf612882df0950f5a951637e0307cdcb4c672f298b8bc660608201524660808201523060a082015260c00160405160208183030381529060405280519060200120905090565b611c3e8484848461215f565b7f414cd0b34676984f09a5f76ce9718d4062e50283abe0e7e274a9a5b4e0c99c308484848442604051611c75959493929190612d43565b60405180910390a150505050565b6001600160a01b038084166000908152600c6020526040808220548584168352818320546010549251633648f48360e21b81529185169490811693927f00000000000000000000000000000000000000000000000000000000000000009091169163d923d20c91611cfa9160040190815260200190565b602060405180830381865afa158015611d17573d6000803e3d6000fd5b505050506040513d601f19601f82011682018060405250810190611d3b9190612d7d565b9050611d4983836001611e76565b611d5486868661217f565b601054604051632f7f752f60e21b81526004810191909152602481018590526001600160a01b03878116604483015286811660648301527f0000000000000000000000000000000000000000000000000000000000000000169063bdfdd4bc90608401600060405180830381600087803b158015611dd157600080fd5b505af1158015611de5573d6000803e3d6000fd5b505050506001600160a01b03811615611e6e57601054604051630f2c8b3160e21b815260048101919091526001600160a01b038781166024830152868116604483015260648201869052821690633cb22cc490608401600060405180830381600087803b158015611e5557600080fd5b505af1158015611e69573d6000803e3d6000fd5b505050505b505050505050565b6001600160a01b03831615611f25576001600160a01b0383166000908152600d6020908152604080832054600b83528184206000198201855290925290912054600160801b90046001600160801b0316828103611ed4868285612237565b806001600160801b0316866001600160a01b03167fd9a6070174f4ccca76ed4896432e9a090b16e07e8fe27f275f50b33500b98e5242604051611f1991815260200190565b60405180910390a35050505b6001600160a01b0382161561201e576001600160a01b038316611f7a57600f5460001981016000908152600e6020526040902054600160801b90046001600160801b0316828101611f768184612315565b5050505b6001600160a01b0382166000908152600d6020908152604080832054600b83528184206000198201855290925290912054600160801b90046001600160801b0316828101611fc9858285612237565b806001600160801b0316856001600160a01b03167fd9a6070174f4ccca76ed4896432e9a090b16e07e8fe27f275f50b33500b98e524260405161200e91815260200190565b60405180910390a3505050505050565b6001600160a01b0383161561074157600f5460001981016000908152600e6020526040902054600160801b90046001600160801b0316828103611e6e8184612315565b60006001600160a01b0384163b1561215457604051630a85bd0160e11b81526001600160a01b0385169063150b7a02906120a5903390899088908890600401612d9a565b6020604051808303816000875af19250505080156120e0575060408051601f3d908101601f191682019092526120dd91810190612dd7565b60015b61213a573d80801561210e576040519150601f19603f3d011682016040523d82523d6000602084013e612113565b606091505b5080516121325760405162461bcd60e51b815260040161060b90612cc8565b805181602001fd5b6001600160e01b031916630a85bd0160e11b1490506115f7565b506001949350505050565b61216b60008585612551565b5061217860018383612551565b5050505050565b6001600160a01b0383166121da576121d581600880546000838152600960205260408120829055600182018355919091527ff3f7a9fe364faab93b216da50a3214154f22a0a2b415b23a84c8169e8b636ee30155565b6121fd565b816001600160a01b0316836001600160a01b0316146121fd576121fd83826123c1565b6001600160a01b038216612214576107418161245e565b826001600160a01b0316826001600160a01b03161461074157610741828261250d565b6001600160a01b0383166000908152600b602052604090204390821580159061227e575060001983016000908152602082905260409020546001600160801b038381169116145b156122b3576000198301600090815260208290526040902080546001600160801b03808716600160801b029116179055612178565b6040805180820182526001600160801b03808516825286811660208084019182526000888152868252858120945192518416600160801b0292909316919091179092556001600160a01b0388168152600d909152206001840190555050505050565b438115801590612343575060001982016000908152600e60205260409020546001600160801b038281169116145b156123785760001982016000908152600e6020526040902080546001600160801b03808616600160801b029116179055505050565b6040805180820182526001600160801b03928316815293821660208086019182526000858152600e90915291909120935190518216600160801b02911617909155600101600f55565b600060016123ce84610c46565b6123d89190612b5a565b60008381526007602052604090205490915080821461242b576001600160a01b03841660009081526006602090815260408083208584528252808320548484528184208190558352600790915290208190555b5060009182526007602090815260408084208490556001600160a01b039094168352600681528383209183525290812055565b60085460009061247090600190612b5a565b6000838152600960205260408120546008805493945090928490811061249857612498612b93565b9060005260206000200154905080600883815481106124b9576124b9612b93565b60009182526020808320909101929092558281526009909152604080822084905585825281205560088054806124f1576124f1612df4565b6001900381819060005260206000200160009055905550505050565b600061251883610c46565b6001600160a01b039093166000908152600660209081526040808320868452825280832085905593825260079052919091209190915550565b82805461255d90612abe565b90600052602060002090601f01602090048101928261257f57600085556125c5565b82601f106125985782800160ff198235161785556125c5565b828001600101855582156125c5579182015b828111156125c55782358255916020019190600101906125aa565b506125d19291506125d5565b5090565b5b808211156125d157600081556001016125d6565b6001600160e01b031981168114610a6857600080fd5b60006020828403121561261257600080fd5b813561261d816125ea565b9392505050565b60005b8381101561263f578181015183820152602001612627565b83811115610dd45750506000910152565b60008151808452612668816020860160208601612624565b601f01601f19169290920160200192915050565b60208152600061261d6020830184612650565b6000602082840312156126a157600080fd5b5035919050565b6001600160a01b0381168114610a6857600080fd5b600080604083850312156126d057600080fd5b82356126db816126a8565b946020939093013593505050565b6000806000606084860312156126fe57600080fd5b8335612709816126a8565b92506020840135612719816126a8565b929592945050506040919091013590565b60006020828403121561273c57600080fd5b813561261d816126a8565b60006080828403121561275957600080fd5b50919050565b600080600060c0848603121561277457600080fd5b833561277f816126a8565b9250602084013591506127958560408601612747565b90509250925092565b803580151581146127ae57600080fd5b919050565b60008060008060e085870312156127c957600080fd5b84356127d4816126a8565b935060208501356127e4816126a8565b92506127f26040860161279e565b91506128018660608701612747565b905092959194509250565b6000806040838503121561281f57600080fd5b823561282a816126a8565b91506128386020840161279e565b90509250929050565b634e487b7160e01b600052604160045260246000fd5b604051601f8201601f1916810167ffffffffffffffff8111828210171561288057612880612841565b604052919050565b600067ffffffffffffffff8211156128a2576128a2612841565b50601f01601f191660200190565b600080600080608085870312156128c657600080fd5b84356128d1816126a8565b935060208501356128e1816126a8565b925060408501359150606085013567ffffffffffffffff81111561290457600080fd5b8501601f8101871361291557600080fd5b803561292861292382612888565b612857565b81815288602083850101111561293d57600080fd5b8160208401602083013760006020838301015280935050505092959194509250565b60008060a0838503121561297257600080fd5b823591506128388460208501612747565b600080600060c0848603121561299857600080fd5b83356129a3816126a8565b925060208401356129b3816126a8565b91506127958560408601612747565b600080604083850312156129d557600080fd5b82356129e0816126a8565b915060208301356129f0816126a8565b809150509250929050565b60008083601f840112612a0d57600080fd5b50813567ffffffffffffffff811115612a2557600080fd5b602083019150836020828501011115612a3d57600080fd5b9250929050565b600080600080600060608688031215612a5c57600080fd5b85359450602086013567ffffffffffffffff80821115612a7b57600080fd5b612a8789838a016129fb565b90965094506040880135915080821115612aa057600080fd5b50612aad888289016129fb565b969995985093965092949392505050565b600181811c90821680612ad257607f821691505b6020821081141561275957634e487b7160e01b600052602260045260246000fd5b60208082526031908201527f4552433732313a207472616e736665722063616c6c6572206973206e6f74206f6040820152701ddb995c881b9bdc88185c1c1c9bdd9959607a1b606082015260800190565b634e487b7160e01b600052601160045260246000fd5b600082821015612b6c57612b6c612b44565b500390565b600082612b8e57634e487b7160e01b600052601260045260246000fd5b500490565b634e487b7160e01b600052603260045260246000fd5b6000600019821415612bbd57612bbd612b44565b5060010190565b600060808284031215612bd657600080fd5b6040516080810181811067ffffffffffffffff82111715612bf957612bf9612841565b604052823560ff81168114612c0d57600080fd5b808252506020830135602082015260408301356040820152606083013560608201528091505092915050565b600060208284031215612c4b57600080fd5b815167ffffffffffffffff811115612c6257600080fd5b8201601f81018413612c7357600080fd5b8051612c8161292382612888565b818152856020838501011115612c9657600080fd5b612ca7826020830160208601612624565b95945050505050565b60008219821115612cc357612cc3612b44565b500190565b60208082526032908201527f4552433732313a207472616e7366657220746f206e6f6e20455243373231526560408201527131b2b4bb32b91034b6b83632b6b2b73a32b960711b606082015260800190565b81835281816020850137506000828201602090810191909152601f909101601f19169091010190565b606081526000612d57606083018789612d1a565b8281036020840152612d6a818688612d1a565b9150508260408301529695505050505050565b600060208284031215612d8f57600080fd5b815161261d816126a8565b6001600160a01b0385811682528416602082015260408101839052608060608201819052600090612dcd90830184612650565b9695505050505050565b600060208284031215612de957600080fd5b815161261d816125ea565b634e487b7160e01b600052603160045260246000fdfea2646970667358221220c414169b0888487380d69795f34363a28e944e451a1d1bbd7643c46f6847e66064736f6c634300080a0033",
  "linkReferences": {},
  "deployedLinkReferences": {}
}